{
  "_format": "hh-sol-artifact-1",
  "contractName": "GameStore",
  "sourceName": "contracts/GameStore.sol",
  "abi": [
    {
      "anonymous": false,
      "inputs": [
        {
          "indexed": false,
          "internalType": "uint256",
          "name": "gameId",
          "type": "uint256"
        },
        {
          "indexed": false,
          "internalType": "string",
          "name": "gameName",
          "type": "string"
        },
        {
          "indexed": false,
          "internalType": "uint256",
          "name": "gamePrice",
          "type": "uint256"
        },
        {
          "indexed": false,
          "internalType": "address",
          "name": "owner",
          "type": "address"
        }
      ],
      "name": "GameAdded",
      "type": "event"
    },
    {
      "anonymous": false,
      "inputs": [
        {
          "indexed": false,
          "internalType": "uint256",
          "name": "gameId",
          "type": "uint256"
        }
      ],
      "name": "GameDeleted",
      "type": "event"
    },
    {
      "anonymous": false,
      "inputs": [
        {
          "indexed": false,
          "internalType": "uint256",
          "name": "gameId",
          "type": "uint256"
        },
        {
          "indexed": false,
          "internalType": "string",
          "name": "gameName",
          "type": "string"
        },
        {
          "indexed": false,
          "internalType": "uint256",
          "name": "gamePrice",
          "type": "uint256"
        }
      ],
      "name": "GameEdited",
      "type": "event"
    },
    {
      "anonymous": false,
      "inputs": [
        {
          "indexed": false,
          "internalType": "uint256",
          "name": "gameId",
          "type": "uint256"
        },
        {
          "indexed": false,
          "internalType": "address",
          "name": "buyer",
          "type": "address"
        },
        {
          "indexed": false,
          "internalType": "uint256",
          "name": "price",
          "type": "uint256"
        }
      ],
      "name": "GamePurchased",
      "type": "event"
    },
    {
      "inputs": [
        {
          "internalType": "string",
          "name": "_gameName",
          "type": "string"
        },
        {
          "internalType": "string",
          "name": "_gameStudio",
          "type": "string"
        },
        {
          "internalType": "string",
          "name": "_gameDescription",
          "type": "string"
        },
        {
          "internalType": "uint256",
          "name": "_gamePrice",
          "type": "uint256"
        },
        {
          "internalType": "string",
          "name": "_imageUrl",
          "type": "string"
        },
        {
          "internalType": "string",
          "name": "_category",
          "type": "string"
        }
      ],
      "name": "addGame",
      "outputs": [],
      "stateMutability": "nonpayable",
      "type": "function"
    },
    {
      "inputs": [
        {
          "internalType": "uint256",
          "name": "_gameId",
          "type": "uint256"
        }
      ],
      "name": "buyGame",
      "outputs": [],
      "stateMutability": "payable",
      "type": "function"
    },
    {
      "inputs": [
        {
          "internalType": "uint256",
          "name": "_gameId",
          "type": "uint256"
        }
      ],
      "name": "deleteGame",
      "outputs": [],
      "stateMutability": "nonpayable",
      "type": "function"
    },
    {
      "inputs": [
        {
          "internalType": "uint256",
          "name": "_gameId",
          "type": "uint256"
        },
        {
          "internalType": "string",
          "name": "_newGameName",
          "type": "string"
        },
        {
          "internalType": "string",
          "name": "_newGameStudio",
          "type": "string"
        },
        {
          "internalType": "string",
          "name": "_newGameDescription",
          "type": "string"
        },
        {
          "internalType": "uint256",
          "name": "_newGamePrice",
          "type": "uint256"
        },
        {
          "internalType": "string",
          "name": "_newImageUrl",
          "type": "string"
        },
        {
          "internalType": "string",
          "name": "_newCategory",
          "type": "string"
        }
      ],
      "name": "editGame",
      "outputs": [],
      "stateMutability": "nonpayable",
      "type": "function"
    },
    {
      "inputs": [],
      "name": "gameCount",
      "outputs": [
        {
          "internalType": "uint256",
          "name": "",
          "type": "uint256"
        }
      ],
      "stateMutability": "view",
      "type": "function"
    },
    {
      "inputs": [
        {
          "internalType": "uint256",
          "name": "",
          "type": "uint256"
        }
      ],
      "name": "games",
      "outputs": [
        {
          "internalType": "uint256",
          "name": "gameId",
          "type": "uint256"
        },
        {
          "internalType": "string",
          "name": "gameName",
          "type": "string"
        },
        {
          "internalType": "string",
          "name": "gameStudio",
          "type": "string"
        },
        {
          "internalType": "string",
          "name": "gameDescription",
          "type": "string"
        },
        {
          "internalType": "uint256",
          "name": "gamePrice",
          "type": "uint256"
        },
        {
          "internalType": "string",
          "name": "imageUrl",
          "type": "string"
        },
        {
          "internalType": "string",
          "name": "category",
          "type": "string"
        },
        {
          "internalType": "address payable",
          "name": "owner",
          "type": "address"
        },
        {
          "internalType": "bool",
          "name": "isDeleted",
          "type": "bool"
        }
      ],
      "stateMutability": "view",
      "type": "function"
    },
    {
      "inputs": [],
      "name": "getAllGames",
      "outputs": [
        {
          "components": [
            {
              "internalType": "uint256",
              "name": "gameId",
              "type": "uint256"
            },
            {
              "internalType": "string",
              "name": "gameName",
              "type": "string"
            },
            {
              "internalType": "string",
              "name": "gameStudio",
              "type": "string"
            },
            {
              "internalType": "string",
              "name": "gameDescription",
              "type": "string"
            },
            {
              "internalType": "uint256",
              "name": "gamePrice",
              "type": "uint256"
            },
            {
              "internalType": "string",
              "name": "imageUrl",
              "type": "string"
            },
            {
              "internalType": "string",
              "name": "category",
              "type": "string"
            },
            {
              "internalType": "address payable",
              "name": "owner",
              "type": "address"
            },
            {
              "internalType": "bool",
              "name": "isDeleted",
              "type": "bool"
            }
          ],
          "internalType": "struct GameStore.Game[]",
          "name": "",
          "type": "tuple[]"
        }
      ],
      "stateMutability": "view",
      "type": "function"
    },
    {
      "inputs": [],
      "name": "getAllTransactions",
      "outputs": [
        {
          "components": [
            {
              "internalType": "uint256",
              "name": "gameId",
              "type": "uint256"
            },
            {
              "internalType": "address",
              "name": "buyer",
              "type": "address"
            },
            {
              "internalType": "uint256",
              "name": "price",
              "type": "uint256"
            }
          ],
          "internalType": "struct GameStore.Transaction[]",
          "name": "",
          "type": "tuple[]"
        }
      ],
      "stateMutability": "view",
      "type": "function"
    },
    {
      "inputs": [
        {
          "internalType": "uint256",
          "name": "_gameId",
          "type": "uint256"
        }
      ],
      "name": "getGame",
      "outputs": [
        {
          "internalType": "string",
          "name": "gameName",
          "type": "string"
        },
        {
          "internalType": "string",
          "name": "gameStudio",
          "type": "string"
        },
        {
          "internalType": "string",
          "name": "gameDescription",
          "type": "string"
        },
        {
          "internalType": "uint256",
          "name": "gamePrice",
          "type": "uint256"
        },
        {
          "internalType": "string",
          "name": "imageUrl",
          "type": "string"
        },
        {
          "internalType": "string",
          "name": "category",
          "type": "string"
        },
        {
          "internalType": "address",
          "name": "owner",
          "type": "address"
        }
      ],
      "stateMutability": "view",
      "type": "function"
    },
    {
      "inputs": [
        {
          "internalType": "address",
          "name": "",
          "type": "address"
        }
      ],
      "name": "purchases",
      "outputs": [
        {
          "internalType": "uint256",
          "name": "",
          "type": "uint256"
        }
      ],
      "stateMutability": "view",
      "type": "function"
    },
    {
      "inputs": [
        {
          "internalType": "uint256",
          "name": "",
          "type": "uint256"
        }
      ],
      "name": "transactions",
      "outputs": [
        {
          "internalType": "uint256",
          "name": "gameId",
          "type": "uint256"
        },
        {
          "internalType": "address",
          "name": "buyer",
          "type": "address"
        },
        {
          "internalType": "uint256",
          "name": "price",
          "type": "uint256"
        }
      ],
      "stateMutability": "view",
      "type": "function"
    },
    {
      "inputs": [
        {
          "internalType": "address",
          "name": "",
          "type": "address"
        },
        {
          "internalType": "uint256",
          "name": "",
          "type": "uint256"
        }
      ],
      "name": "userTransactions",
      "outputs": [
        {
          "internalType": "uint256",
          "name": "gameId",
          "type": "uint256"
        },
        {
          "internalType": "address",
          "name": "buyer",
          "type": "address"
        },
        {
          "internalType": "uint256",
          "name": "price",
          "type": "uint256"
        }
      ],
      "stateMutability": "view",
      "type": "function"
    }
  ],
  "bytecode": "0x608060405234801561001057600080fd5b50612d13806100206000396000f3fe6080604052600436106100a75760003560e01c8063a2f77bcc11610064578063a2f77bcc146101ec578063b842ec441461022f578063db1c45f91461026e578063e90332bf14610299578063e910f11d146102c2578063f7760517146102eb576100a7565b8063117a5b90146100ac578063248a55a1146100f157806327506f531461011a5780634d1975b414610145578063842a77d3146101705780639ace38c2146101ad575b600080fd5b3480156100b857600080fd5b506100d360048036038101906100ce9190611af9565b610307565b6040516100e899989796959493929190611c21565b60405180910390f35b3480156100fd57600080fd5b5061011860048036038101906101139190611af9565b61062a565b005b34801561012657600080fd5b5061012f6107c3565b60405161013c9190611df2565b60405180910390f35b34801561015157600080fd5b5061015a61088c565b6040516101679190611e14565b60405180910390f35b34801561017c57600080fd5b5061019760048036038101906101929190611e5b565b610892565b6040516101a49190611e14565b60405180910390f35b3480156101b957600080fd5b506101d460048036038101906101cf9190611af9565b6108aa565b6040516101e393929190611e97565b60405180910390f35b3480156101f857600080fd5b50610213600480360381019061020e9190611af9565b610904565b6040516102269796959493929190611ece565b60405180910390f35b34801561023b57600080fd5b5061025660048036038101906102519190611f60565b610d13565b60405161026593929190611e97565b60405180910390f35b34801561027a57600080fd5b50610283610d7a565b60405161029091906121ab565b60405180910390f35b3480156102a557600080fd5b506102c060048036038101906102bb9190612302565b61122e565b005b3480156102ce57600080fd5b506102e960048036038101906102e49190612430565b611417565b005b61030560048036038101906103009190611af9565b611615565b005b600060205280600052604060002060009150905080600001549080600101805461033090612578565b80601f016020809104026020016040519081016040528092919081815260200182805461035c90612578565b80156103a95780601f1061037e576101008083540402835291602001916103a9565b820191906000526020600020905b81548152906001019060200180831161038c57829003601f168201915b5050505050908060020180546103be90612578565b80601f01602080910402602001604051908101604052809291908181526020018280546103ea90612578565b80156104375780601f1061040c57610100808354040283529160200191610437565b820191906000526020600020905b81548152906001019060200180831161041a57829003601f168201915b50505050509080600301805461044c90612578565b80601f016020809104026020016040519081016040528092919081815260200182805461047890612578565b80156104c55780601f1061049a576101008083540402835291602001916104c5565b820191906000526020600020905b8154815290600101906020018083116104a857829003601f168201915b5050505050908060040154908060050180546104e090612578565b80601f016020809104026020016040519081016040528092919081815260200182805461050c90612578565b80156105595780601f1061052e57610100808354040283529160200191610559565b820191906000526020600020905b81548152906001019060200180831161053c57829003601f168201915b50505050509080600601805461056e90612578565b80601f016020809104026020016040519081016040528092919081815260200182805461059a90612578565b80156105e75780601f106105bc576101008083540402835291602001916105e7565b820191906000526020600020905b8154815290600101906020018083116105ca57829003601f168201915b5050505050908060070160009054906101000a900473ffffffffffffffffffffffffffffffffffffffff16908060070160149054906101000a900460ff16905089565b600080600083815260200190815260200160002090506000816000015411610687576040517f08c379a000000000000000000000000000000000000000000000000000000000815260040161067e906125f5565b60405180910390fd5b8060070160009054906101000a900473ffffffffffffffffffffffffffffffffffffffff1673ffffffffffffffffffffffffffffffffffffffff163373ffffffffffffffffffffffffffffffffffffffff1614610719576040517f08c379a000000000000000000000000000000000000000000000000000000000815260040161071090612687565b60405180910390fd5b8060070160149054906101000a900460ff161561076b576040517f08c379a0000000000000000000000000000000000000000000000000000000008152600401610762906126f3565b60405180910390fd5b60018160070160146101000a81548160ff0219169083151502179055507f5ef6221cc1c069a8c723210c08d526c7ca88540ee8d66470cf01844efaae0b94826040516107b79190611e14565b60405180910390a15050565b60606004805480602002602001604051908101604052809291908181526020016000905b828210156108835783829060005260206000209060030201604051806060016040529081600082015481526020016001820160009054906101000a900473ffffffffffffffffffffffffffffffffffffffff1673ffffffffffffffffffffffffffffffffffffffff1673ffffffffffffffffffffffffffffffffffffffff168152602001600282015481525050815260200190600101906107e7565b50505050905090565b60035481565b60016020528060005260406000206000915090505481565b600481815481106108ba57600080fd5b90600052602060002090600302016000915090508060000154908060010160009054906101000a900473ffffffffffffffffffffffffffffffffffffffff16908060020154905083565b606080606060006060806000806000808a8152602001908152602001600020604051806101200160405290816000820154815260200160018201805461094990612578565b80601f016020809104026020016040519081016040528092919081815260200182805461097590612578565b80156109c25780601f10610997576101008083540402835291602001916109c2565b820191906000526020600020905b8154815290600101906020018083116109a557829003601f168201915b505050505081526020016002820180546109db90612578565b80601f0160208091040260200160405190810160405280929190818152602001828054610a0790612578565b8015610a545780601f10610a2957610100808354040283529160200191610a54565b820191906000526020600020905b815481529060010190602001808311610a3757829003601f168201915b50505050508152602001600382018054610a6d90612578565b80601f0160208091040260200160405190810160405280929190818152602001828054610a9990612578565b8015610ae65780601f10610abb57610100808354040283529160200191610ae6565b820191906000526020600020905b815481529060010190602001808311610ac957829003601f168201915b5050505050815260200160048201548152602001600582018054610b0990612578565b80601f0160208091040260200160405190810160405280929190818152602001828054610b3590612578565b8015610b825780601f10610b5757610100808354040283529160200191610b82565b820191906000526020600020905b815481529060010190602001808311610b6557829003601f168201915b50505050508152602001600682018054610b9b90612578565b80601f0160208091040260200160405190810160405280929190818152602001828054610bc790612578565b8015610c145780601f10610be957610100808354040283529160200191610c14565b820191906000526020600020905b815481529060010190602001808311610bf757829003601f168201915b505050505081526020016007820160009054906101000a900473ffffffffffffffffffffffffffffffffffffffff1673ffffffffffffffffffffffffffffffffffffffff1673ffffffffffffffffffffffffffffffffffffffff1681526020016007820160149054906101000a900460ff161515151581525050905080610100015115610cd6576040517f08c379a0000000000000000000000000000000000000000000000000000000008152600401610ccd9061275f565b60405180910390fd5b80602001518160400151826060015183608001518460a001518560c001518660e00151975097509750975097509750975050919395979092949650565b60026020528160005260406000208181548110610d2f57600080fd5b9060005260206000209060030201600091509150508060000154908060010160009054906101000a900473ffffffffffffffffffffffffffffffffffffffff16908060020154905083565b6060600080600190505b6003548111610dd65760008082815260200190815260200160002060070160149054906101000a900460ff16610dc3578180610dbf906127ae565b9250505b8080610dce906127ae565b915050610d84565b5060008167ffffffffffffffff811115610df357610df26121d7565b5b604051908082528060200260200182016040528015610e2c57816020015b610e19611a4b565b815260200190600190039081610e115790505b509050600080600190505b60035481116112245760008082815260200190815260200160002060070160149054906101000a900460ff16611211576000808281526020019081526020016000206040518061012001604052908160008201548152602001600182018054610e9f90612578565b80601f0160208091040260200160405190810160405280929190818152602001828054610ecb90612578565b8015610f185780601f10610eed57610100808354040283529160200191610f18565b820191906000526020600020905b815481529060010190602001808311610efb57829003601f168201915b50505050508152602001600282018054610f3190612578565b80601f0160208091040260200160405190810160405280929190818152602001828054610f5d90612578565b8015610faa5780601f10610f7f57610100808354040283529160200191610faa565b820191906000526020600020905b815481529060010190602001808311610f8d57829003601f168201915b50505050508152602001600382018054610fc390612578565b80601f0160208091040260200160405190810160405280929190818152602001828054610fef90612578565b801561103c5780601f106110115761010080835404028352916020019161103c565b820191906000526020600020905b81548152906001019060200180831161101f57829003601f168201915b505050505081526020016004820154815260200160058201805461105f90612578565b80601f016020809104026020016040519081016040528092919081815260200182805461108b90612578565b80156110d85780601f106110ad576101008083540402835291602001916110d8565b820191906000526020600020905b8154815290600101906020018083116110bb57829003601f168201915b505050505081526020016006820180546110f190612578565b80601f016020809104026020016040519081016040528092919081815260200182805461111d90612578565b801561116a5780601f1061113f5761010080835404028352916020019161116a565b820191906000526020600020905b81548152906001019060200180831161114d57829003601f168201915b505050505081526020016007820160009054906101000a900473ffffffffffffffffffffffffffffffffffffffff1673ffffffffffffffffffffffffffffffffffffffff1673ffffffffffffffffffffffffffffffffffffffff1681526020016007820160149054906101000a900460ff1615151515815250508383815181106111f7576111f66127f6565b5b6020026020010181905250818061120d906127ae565b9250505b808061121c906127ae565b915050610e37565b5081935050505090565b60008060008981526020019081526020016000209050600081600001541161128b576040517f08c379a0000000000000000000000000000000000000000000000000000000008152600401611282906125f5565b60405180910390fd5b8060070160009054906101000a900473ffffffffffffffffffffffffffffffffffffffff1673ffffffffffffffffffffffffffffffffffffffff163373ffffffffffffffffffffffffffffffffffffffff161461131d576040517f08c379a000000000000000000000000000000000000000000000000000000000815260040161131490612871565b60405180910390fd5b8060070160149054906101000a900460ff161561136f576040517f08c379a00000000000000000000000000000000000000000000000000000000081526004016113669061275f565b60405180910390fd5b868160010190816113809190612a3d565b50858160020190816113929190612a3d565b50848160030190816113a49190612a3d565b50838160040181905550828160050190816113bf9190612a3d565b50818160060190816113d19190612a3d565b507fc9921792410179ebe0fcb4eb23c7b89cd9b7746868faec9d7821f97880f4c30288888660405161140593929190612b0f565b60405180910390a15050505050505050565b6000831161145a576040517f08c379a000000000000000000000000000000000000000000000000000000000815260040161145190612b99565b60405180910390fd5b6003600081548092919061146d906127ae565b919050555060405180610120016040528060035481526020018781526020018681526020018581526020018481526020018381526020018281526020013373ffffffffffffffffffffffffffffffffffffffff1681526020016000151581525060008060035481526020019081526020016000206000820151816000015560208201518160010190816115009190612a3d565b5060408201518160020190816115169190612a3d565b50606082015181600301908161152c9190612a3d565b506080820151816004015560a082015181600501908161154c9190612a3d565b5060c08201518160060190816115629190612a3d565b5060e08201518160070160006101000a81548173ffffffffffffffffffffffffffffffffffffffff021916908373ffffffffffffffffffffffffffffffffffffffff1602179055506101008201518160070160146101000a81548160ff0219169083151502179055509050507fd2b9a68893d393baef360a573c656712981eca44d77e73b3bd6bd6bc6ab477246003548785336040516116059493929190612bb9565b60405180910390a1505050505050565b600080600083815260200190815260200160002090506000816000015411611672576040517f08c379a0000000000000000000000000000000000000000000000000000000008152600401611669906125f5565b60405180910390fd5b8060070160149054906101000a900460ff16156116c4576040517f08c379a00000000000000000000000000000000000000000000000000000000081526004016116bb9061275f565b60405180910390fd5b806004015434101561170b576040517f08c379a000000000000000000000000000000000000000000000000000000000815260040161170290612c51565b60405180910390fd5b8060070160009054906101000a900473ffffffffffffffffffffffffffffffffffffffff1673ffffffffffffffffffffffffffffffffffffffff163373ffffffffffffffffffffffffffffffffffffffff160361179d576040517f08c379a000000000000000000000000000000000000000000000000000000000815260040161179490612cbd565b60405180910390fd5b8060070160009054906101000a900473ffffffffffffffffffffffffffffffffffffffff1673ffffffffffffffffffffffffffffffffffffffff166108fc349081150290604051600060405180830381858888f19350505050158015611807573d6000803e3d6000fd5b50600460405180606001604052808481526020013373ffffffffffffffffffffffffffffffffffffffff1681526020013481525090806001815401808255809150506001900390600052602060002090600302016000909190919091506000820151816000015560208201518160010160006101000a81548173ffffffffffffffffffffffffffffffffffffffff021916908373ffffffffffffffffffffffffffffffffffffffff160217905550604082015181600201555050600260003373ffffffffffffffffffffffffffffffffffffffff1673ffffffffffffffffffffffffffffffffffffffff16815260200190815260200160002060405180606001604052808481526020013373ffffffffffffffffffffffffffffffffffffffff1681526020013481525090806001815401808255809150506001900390600052602060002090600302016000909190919091506000820151816000015560208201518160010160006101000a81548173ffffffffffffffffffffffffffffffffffffffff021916908373ffffffffffffffffffffffffffffffffffffffff160217905550604082015181600201555050600160003373ffffffffffffffffffffffffffffffffffffffff1673ffffffffffffffffffffffffffffffffffffffff1681526020019081526020016000206000815480929190611a07906127ae565b91905055507f386b2c241ea9384ab9e1c5d3e12dfbd5c74f7a37ff7c5134cc04ef689f441949823334604051611a3f93929190611e97565b60405180910390a15050565b60405180610120016040528060008152602001606081526020016060815260200160608152602001600081526020016060815260200160608152602001600073ffffffffffffffffffffffffffffffffffffffff1681526020016000151581525090565b6000604051905090565b600080fd5b600080fd5b6000819050919050565b611ad681611ac3565b8114611ae157600080fd5b50565b600081359050611af381611acd565b92915050565b600060208284031215611b0f57611b0e611ab9565b5b6000611b1d84828501611ae4565b91505092915050565b611b2f81611ac3565b82525050565b600081519050919050565b600082825260208201905092915050565b60005b83811015611b6f578082015181840152602081019050611b54565b60008484015250505050565b6000601f19601f8301169050919050565b6000611b9782611b35565b611ba18185611b40565b9350611bb1818560208601611b51565b611bba81611b7b565b840191505092915050565b600073ffffffffffffffffffffffffffffffffffffffff82169050919050565b6000611bf082611bc5565b9050919050565b611c0081611be5565b82525050565b60008115159050919050565b611c1b81611c06565b82525050565b600061012082019050611c37600083018c611b26565b8181036020830152611c49818b611b8c565b90508181036040830152611c5d818a611b8c565b90508181036060830152611c718189611b8c565b9050611c806080830188611b26565b81810360a0830152611c928187611b8c565b905081810360c0830152611ca68186611b8c565b9050611cb560e0830185611bf7565b611cc3610100830184611c12565b9a9950505050505050505050565b600081519050919050565b600082825260208201905092915050565b6000819050602082019050919050565b611d0681611ac3565b82525050565b6000611d1782611bc5565b9050919050565b611d2781611d0c565b82525050565b606082016000820151611d436000850182611cfd565b506020820151611d566020850182611d1e565b506040820151611d696040850182611cfd565b50505050565b6000611d7b8383611d2d565b60608301905092915050565b6000602082019050919050565b6000611d9f82611cd1565b611da98185611cdc565b9350611db483611ced565b8060005b83811015611de5578151611dcc8882611d6f565b9750611dd783611d87565b925050600181019050611db8565b5085935050505092915050565b60006020820190508181036000830152611e0c8184611d94565b905092915050565b6000602082019050611e296000830184611b26565b92915050565b611e3881611d0c565b8114611e4357600080fd5b50565b600081359050611e5581611e2f565b92915050565b600060208284031215611e7157611e70611ab9565b5b6000611e7f84828501611e46565b91505092915050565b611e9181611d0c565b82525050565b6000606082019050611eac6000830186611b26565b611eb96020830185611e88565b611ec66040830184611b26565b949350505050565b600060e0820190508181036000830152611ee8818a611b8c565b90508181036020830152611efc8189611b8c565b90508181036040830152611f108188611b8c565b9050611f1f6060830187611b26565b8181036080830152611f318186611b8c565b905081810360a0830152611f458185611b8c565b9050611f5460c0830184611e88565b98975050505050505050565b60008060408385031215611f7757611f76611ab9565b5b6000611f8585828601611e46565b9250506020611f9685828601611ae4565b9150509250929050565b600081519050919050565b600082825260208201905092915050565b6000819050602082019050919050565b600082825260208201905092915050565b6000611fe882611b35565b611ff28185611fcc565b9350612002818560208601611b51565b61200b81611b7b565b840191505092915050565b61201f81611be5565b82525050565b61202e81611c06565b82525050565b60006101208301600083015161204d6000860182611cfd565b50602083015184820360208601526120658282611fdd565b9150506040830151848203604086015261207f8282611fdd565b915050606083015184820360608601526120998282611fdd565b91505060808301516120ae6080860182611cfd565b5060a083015184820360a08601526120c68282611fdd565b91505060c083015184820360c08601526120e08282611fdd565b91505060e08301516120f560e0860182612016565b5061010083015161210a610100860182612025565b508091505092915050565b60006121218383612034565b905092915050565b6000602082019050919050565b600061214182611fa0565b61214b8185611fab565b93508360208202850161215d85611fbc565b8060005b85811015612199578484038952815161217a8582612115565b945061218583612129565b925060208a01995050600181019050612161565b50829750879550505050505092915050565b600060208201905081810360008301526121c58184612136565b905092915050565b600080fd5b600080fd5b7f4e487b7100000000000000000000000000000000000000000000000000000000600052604160045260246000fd5b61220f82611b7b565b810181811067ffffffffffffffff8211171561222e5761222d6121d7565b5b80604052505050565b6000612241611aaf565b905061224d8282612206565b919050565b600067ffffffffffffffff82111561226d5761226c6121d7565b5b61227682611b7b565b9050602081019050919050565b82818337600083830152505050565b60006122a56122a084612252565b612237565b9050828152602081018484840111156122c1576122c06121d2565b5b6122cc848285612283565b509392505050565b600082601f8301126122e9576122e86121cd565b5b81356122f9848260208601612292565b91505092915050565b600080600080600080600060e0888a03121561232157612320611ab9565b5b600061232f8a828b01611ae4565b975050602088013567ffffffffffffffff8111156123505761234f611abe565b5b61235c8a828b016122d4565b965050604088013567ffffffffffffffff81111561237d5761237c611abe565b5b6123898a828b016122d4565b955050606088013567ffffffffffffffff8111156123aa576123a9611abe565b5b6123b68a828b016122d4565b94505060806123c78a828b01611ae4565b93505060a088013567ffffffffffffffff8111156123e8576123e7611abe565b5b6123f48a828b016122d4565b92505060c088013567ffffffffffffffff81111561241557612414611abe565b5b6124218a828b016122d4565b91505092959891949750929550565b60008060008060008060c0878903121561244d5761244c611ab9565b5b600087013567ffffffffffffffff81111561246b5761246a611abe565b5b61247789828a016122d4565b965050602087013567ffffffffffffffff81111561249857612497611abe565b5b6124a489828a016122d4565b955050604087013567ffffffffffffffff8111156124c5576124c4611abe565b5b6124d189828a016122d4565b94505060606124e289828a01611ae4565b935050608087013567ffffffffffffffff81111561250357612502611abe565b5b61250f89828a016122d4565b92505060a087013567ffffffffffffffff8111156125305761252f611abe565b5b61253c89828a016122d4565b9150509295509295509295565b7f4e487b7100000000000000000000000000000000000000000000000000000000600052602260045260246000fd5b6000600282049050600182168061259057607f821691505b6020821081036125a3576125a2612549565b5b50919050565b7f47616d6520646f6573206e6f7420657869737400000000000000000000000000600082015250565b60006125df601383611b40565b91506125ea826125a9565b602082019050919050565b6000602082019050818103600083015261260e816125d2565b9050919050565b7f4f6e6c7920746865206f776e65722063616e2064656c6574652074686520676160008201527f6d65000000000000000000000000000000000000000000000000000000000000602082015250565b6000612671602283611b40565b915061267c82612615565b604082019050919050565b600060208201905081810360008301526126a081612664565b9050919050565b7f47616d652068617320616c7265616479206265656e2064656c65746564000000600082015250565b60006126dd601d83611b40565b91506126e8826126a7565b602082019050919050565b6000602082019050818103600083015261270c816126d0565b9050919050565b7f47616d6520686173206265656e2064656c657465640000000000000000000000600082015250565b6000612749601583611b40565b915061275482612713565b602082019050919050565b600060208201905081810360008301526127788161273c565b9050919050565b7f4e487b7100000000000000000000000000000000000000000000000000000000600052601160045260246000fd5b60006127b982611ac3565b91507fffffffffffffffffffffffffffffffffffffffffffffffffffffffffffffffff82036127eb576127ea61277f565b5b600182019050919050565b7f4e487b7100000000000000000000000000000000000000000000000000000000600052603260045260246000fd5b7f4f6e6c7920746865206f776e65722063616e2065646974207468652067616d65600082015250565b600061285b602083611b40565b915061286682612825565b602082019050919050565b6000602082019050818103600083015261288a8161284e565b9050919050565b60008190508160005260206000209050919050565b60006020601f8301049050919050565b600082821b905092915050565b6000600883026128f37fffffffffffffffffffffffffffffffffffffffffffffffffffffffffffffffff826128b6565b6128fd86836128b6565b95508019841693508086168417925050509392505050565b6000819050919050565b600061293a61293561293084611ac3565b612915565b611ac3565b9050919050565b6000819050919050565b6129548361291f565b61296861296082612941565b8484546128c3565b825550505050565b600090565b61297d612970565b61298881848461294b565b505050565b5b818110156129ac576129a1600082612975565b60018101905061298e565b5050565b601f8211156129f1576129c281612891565b6129cb846128a6565b810160208510156129da578190505b6129ee6129e6856128a6565b83018261298d565b50505b505050565b600082821c905092915050565b6000612a14600019846008026129f6565b1980831691505092915050565b6000612a2d8383612a03565b9150826002028217905092915050565b612a4682611b35565b67ffffffffffffffff811115612a5f57612a5e6121d7565b5b612a698254612578565b612a748282856129b0565b600060209050601f831160018114612aa75760008415612a95578287015190505b612a9f8582612a21565b865550612b07565b601f198416612ab586612891565b60005b82811015612add57848901518255600182019150602085019450602081019050612ab8565b86831015612afa5784890151612af6601f891682612a03565b8355505b6001600288020188555050505b505050505050565b6000606082019050612b246000830186611b26565b8181036020830152612b368185611b8c565b9050612b456040830184611b26565b949350505050565b7f5072696365206d7573742062652067726561746572207468616e203000000000600082015250565b6000612b83601c83611b40565b9150612b8e82612b4d565b602082019050919050565b60006020820190508181036000830152612bb281612b76565b9050919050565b6000608082019050612bce6000830187611b26565b8181036020830152612be08186611b8c565b9050612bef6040830185611b26565b612bfc6060830184611e88565b95945050505050565b7f496e73756666696369656e742045746865722073656e74000000000000000000600082015250565b6000612c3b601783611b40565b9150612c4682612c05565b602082019050919050565b60006020820190508181036000830152612c6a81612c2e565b9050919050565b7f4f776e65722063616e6e6f7420627579207468656972206f776e2067616d6500600082015250565b6000612ca7601f83611b40565b9150612cb282612c71565b602082019050919050565b60006020820190508181036000830152612cd681612c9a565b905091905056fea2646970667358221220d0d7dfb1e4e11a3d2a36efd12af7175ef47c71dedd614c9f66c6fd729156ded964736f6c63430008180033",
  "linkReferences": {},
  "deployedLinkReferences": {}
}