{
  "_format": "hh-sol-artifact-1",
  "contractName": "GameStore",
  "sourceName": "contracts/Gamestore.sol",
  "abi": [
    {
      "inputs": [],
      "stateMutability": "nonpayable",
      "type": "constructor"
    },
    {
      "anonymous": false,
      "inputs": [
        {
          "indexed": false,
          "internalType": "uint256",
          "name": "gameId",
          "type": "uint256"
        },
        {
          "indexed": false,
          "internalType": "string",
          "name": "gameName",
          "type": "string"
        },
        {
          "indexed": false,
          "internalType": "uint256",
          "name": "gamePrice",
          "type": "uint256"
        },
        {
          "indexed": false,
          "internalType": "address",
          "name": "owner",
          "type": "address"
        }
      ],
      "name": "GameAdded",
      "type": "event"
    },
    {
      "anonymous": false,
      "inputs": [
        {
          "indexed": false,
          "internalType": "uint256",
          "name": "gameId",
          "type": "uint256"
        }
      ],
      "name": "GameDeleted",
      "type": "event"
    },
    {
      "anonymous": false,
      "inputs": [
        {
          "indexed": false,
          "internalType": "uint256",
          "name": "gameId",
          "type": "uint256"
        },
        {
          "indexed": false,
          "internalType": "string",
          "name": "gameName",
          "type": "string"
        },
        {
          "indexed": false,
          "internalType": "uint256",
          "name": "gamePrice",
          "type": "uint256"
        }
      ],
      "name": "GameEdited",
      "type": "event"
    },
    {
      "anonymous": false,
      "inputs": [
        {
          "indexed": false,
          "internalType": "uint256",
          "name": "gameId",
          "type": "uint256"
        },
        {
          "indexed": false,
          "internalType": "address",
          "name": "buyer",
          "type": "address"
        },
        {
          "indexed": false,
          "internalType": "uint256",
          "name": "price",
          "type": "uint256"
        }
      ],
      "name": "GamePurchased",
      "type": "event"
    },
    {
      "anonymous": false,
      "inputs": [
        {
          "indexed": false,
          "internalType": "address",
          "name": "userAddress",
          "type": "address"
        },
        {
          "indexed": false,
          "internalType": "string",
          "name": "username",
          "type": "string"
        }
      ],
      "name": "UserRegistered",
      "type": "event"
    },
    {
      "inputs": [
        {
          "internalType": "string",
          "name": "_gameName",
          "type": "string"
        },
        {
          "internalType": "string",
          "name": "_gameStudio",
          "type": "string"
        },
        {
          "internalType": "string",
          "name": "_gameDescription",
          "type": "string"
        },
        {
          "internalType": "uint256",
          "name": "_gamePrice",
          "type": "uint256"
        },
        {
          "internalType": "string",
          "name": "_imageUrl",
          "type": "string"
        },
        {
          "internalType": "string",
          "name": "_category",
          "type": "string"
        }
      ],
      "name": "addGame",
      "outputs": [],
      "stateMutability": "nonpayable",
      "type": "function"
    },
    {
      "inputs": [],
      "name": "admin",
      "outputs": [
        {
          "internalType": "address",
          "name": "",
          "type": "address"
        }
      ],
      "stateMutability": "view",
      "type": "function"
    },
    {
      "inputs": [
        {
          "internalType": "uint256",
          "name": "_gameId",
          "type": "uint256"
        }
      ],
      "name": "buyGame",
      "outputs": [],
      "stateMutability": "payable",
      "type": "function"
    },
    {
      "inputs": [
        {
          "internalType": "uint256",
          "name": "_gameId",
          "type": "uint256"
        }
      ],
      "name": "deleteGame",
      "outputs": [],
      "stateMutability": "nonpayable",
      "type": "function"
    },
    {
      "inputs": [
        {
          "internalType": "uint256",
          "name": "_gameId",
          "type": "uint256"
        },
        {
          "internalType": "string",
          "name": "_newGameName",
          "type": "string"
        },
        {
          "internalType": "string",
          "name": "_newGameStudio",
          "type": "string"
        },
        {
          "internalType": "string",
          "name": "_newGameDescription",
          "type": "string"
        },
        {
          "internalType": "uint256",
          "name": "_newGamePrice",
          "type": "uint256"
        },
        {
          "internalType": "string",
          "name": "_newImageUrl",
          "type": "string"
        },
        {
          "internalType": "string",
          "name": "_newCategory",
          "type": "string"
        }
      ],
      "name": "editGame",
      "outputs": [],
      "stateMutability": "nonpayable",
      "type": "function"
    },
    {
      "inputs": [],
      "name": "gameCount",
      "outputs": [
        {
          "internalType": "uint256",
          "name": "",
          "type": "uint256"
        }
      ],
      "stateMutability": "view",
      "type": "function"
    },
    {
      "inputs": [
        {
          "internalType": "uint256",
          "name": "",
          "type": "uint256"
        }
      ],
      "name": "games",
      "outputs": [
        {
          "internalType": "uint256",
          "name": "gameId",
          "type": "uint256"
        },
        {
          "internalType": "string",
          "name": "gameName",
          "type": "string"
        },
        {
          "internalType": "string",
          "name": "gameStudio",
          "type": "string"
        },
        {
          "internalType": "string",
          "name": "gameDescription",
          "type": "string"
        },
        {
          "internalType": "uint256",
          "name": "gamePrice",
          "type": "uint256"
        },
        {
          "internalType": "string",
          "name": "imageUrl",
          "type": "string"
        },
        {
          "internalType": "string",
          "name": "category",
          "type": "string"
        },
        {
          "internalType": "address payable",
          "name": "owner",
          "type": "address"
        },
        {
          "internalType": "bool",
          "name": "isDeleted",
          "type": "bool"
        }
      ],
      "stateMutability": "view",
      "type": "function"
    },
    {
      "inputs": [],
      "name": "getAllGames",
      "outputs": [
        {
          "components": [
            {
              "internalType": "uint256",
              "name": "gameId",
              "type": "uint256"
            },
            {
              "internalType": "string",
              "name": "gameName",
              "type": "string"
            },
            {
              "internalType": "string",
              "name": "gameStudio",
              "type": "string"
            },
            {
              "internalType": "string",
              "name": "gameDescription",
              "type": "string"
            },
            {
              "internalType": "uint256",
              "name": "gamePrice",
              "type": "uint256"
            },
            {
              "internalType": "string",
              "name": "imageUrl",
              "type": "string"
            },
            {
              "internalType": "string",
              "name": "category",
              "type": "string"
            },
            {
              "internalType": "address payable",
              "name": "owner",
              "type": "address"
            },
            {
              "internalType": "bool",
              "name": "isDeleted",
              "type": "bool"
            },
            {
              "internalType": "address[]",
              "name": "buyers",
              "type": "address[]"
            }
          ],
          "internalType": "struct GameStore.Game[]",
          "name": "",
          "type": "tuple[]"
        }
      ],
      "stateMutability": "view",
      "type": "function"
    },
    {
      "inputs": [],
      "name": "getAllTransactions",
      "outputs": [
        {
          "components": [
            {
              "internalType": "uint256",
              "name": "gameId",
              "type": "uint256"
            },
            {
              "internalType": "address",
              "name": "buyer",
              "type": "address"
            },
            {
              "internalType": "uint256",
              "name": "price",
              "type": "uint256"
            }
          ],
          "internalType": "struct GameStore.Transaction[]",
          "name": "",
          "type": "tuple[]"
        }
      ],
      "stateMutability": "view",
      "type": "function"
    },
    {
      "inputs": [
        {
          "internalType": "uint256",
          "name": "_gameId",
          "type": "uint256"
        }
      ],
      "name": "getGame",
      "outputs": [
        {
          "internalType": "string",
          "name": "gameName",
          "type": "string"
        },
        {
          "internalType": "string",
          "name": "gameStudio",
          "type": "string"
        },
        {
          "internalType": "string",
          "name": "gameDescription",
          "type": "string"
        },
        {
          "internalType": "uint256",
          "name": "gamePrice",
          "type": "uint256"
        },
        {
          "internalType": "string",
          "name": "imageUrl",
          "type": "string"
        },
        {
          "internalType": "string",
          "name": "category",
          "type": "string"
        },
        {
          "internalType": "address",
          "name": "owner",
          "type": "address"
        },
        {
          "internalType": "address[]",
          "name": "buyers",
          "type": "address[]"
        }
      ],
      "stateMutability": "view",
      "type": "function"
    },
    {
      "inputs": [
        {
          "internalType": "address",
          "name": "_user",
          "type": "address"
        }
      ],
      "name": "getUserGames",
      "outputs": [
        {
          "components": [
            {
              "internalType": "uint256",
              "name": "gameId",
              "type": "uint256"
            },
            {
              "internalType": "string",
              "name": "gameName",
              "type": "string"
            },
            {
              "internalType": "string",
              "name": "gameStudio",
              "type": "string"
            },
            {
              "internalType": "string",
              "name": "gameDescription",
              "type": "string"
            },
            {
              "internalType": "uint256",
              "name": "gamePrice",
              "type": "uint256"
            },
            {
              "internalType": "string",
              "name": "imageUrl",
              "type": "string"
            },
            {
              "internalType": "string",
              "name": "category",
              "type": "string"
            },
            {
              "internalType": "address payable",
              "name": "owner",
              "type": "address"
            },
            {
              "internalType": "bool",
              "name": "isDeleted",
              "type": "bool"
            },
            {
              "internalType": "address[]",
              "name": "buyers",
              "type": "address[]"
            }
          ],
          "internalType": "struct GameStore.Game[]",
          "name": "",
          "type": "tuple[]"
        }
      ],
      "stateMutability": "view",
      "type": "function"
    },
    {
      "inputs": [],
      "name": "login",
      "outputs": [
        {
          "internalType": "bool",
          "name": "",
          "type": "bool"
        }
      ],
      "stateMutability": "view",
      "type": "function"
    },
    {
      "inputs": [
        {
          "internalType": "address",
          "name": "",
          "type": "address"
        }
      ],
      "name": "purchases",
      "outputs": [
        {
          "internalType": "uint256",
          "name": "",
          "type": "uint256"
        }
      ],
      "stateMutability": "view",
      "type": "function"
    },
    {
      "inputs": [
        {
          "internalType": "string",
          "name": "_username",
          "type": "string"
        }
      ],
      "name": "register",
      "outputs": [],
      "stateMutability": "nonpayable",
      "type": "function"
    },
    {
      "inputs": [
        {
          "internalType": "uint256",
          "name": "",
          "type": "uint256"
        }
      ],
      "name": "transactions",
      "outputs": [
        {
          "internalType": "uint256",
          "name": "gameId",
          "type": "uint256"
        },
        {
          "internalType": "address",
          "name": "buyer",
          "type": "address"
        },
        {
          "internalType": "uint256",
          "name": "price",
          "type": "uint256"
        }
      ],
      "stateMutability": "view",
      "type": "function"
    },
    {
      "inputs": [
        {
          "internalType": "address",
          "name": "",
          "type": "address"
        },
        {
          "internalType": "uint256",
          "name": "",
          "type": "uint256"
        }
      ],
      "name": "userTransactions",
      "outputs": [
        {
          "internalType": "uint256",
          "name": "gameId",
          "type": "uint256"
        },
        {
          "internalType": "address",
          "name": "buyer",
          "type": "address"
        },
        {
          "internalType": "uint256",
          "name": "price",
          "type": "uint256"
        }
      ],
      "stateMutability": "view",
      "type": "function"
    },
    {
      "inputs": [
        {
          "internalType": "address",
          "name": "",
          "type": "address"
        }
      ],
      "name": "users",
      "outputs": [
        {
          "internalType": "string",
          "name": "username",
          "type": "string"
        },
        {
          "internalType": "address",
          "name": "userAddress",
          "type": "address"
        },
        {
          "internalType": "bool",
          "name": "isRegistered",
          "type": "bool"
        }
      ],
      "stateMutability": "view",
      "type": "function"
    }
  ],
  "bytecode": "0x608060405234801561001057600080fd5b5033600660006101000a81548173ffffffffffffffffffffffffffffffffffffffff021916908373ffffffffffffffffffffffffffffffffffffffff160217905550613cf3806100616000396000f3fe6080604052600436106100fe5760003560e01c8063a87430ba11610095578063e90332bf11610064578063e90332bf14610398578063e910f11d146103c1578063f2c298be146103ea578063f776051714610413578063f851a4401461042f576100fe565b8063a87430ba146102c4578063b34e97e814610303578063b842ec441461032e578063db1c45f91461036d576100fe565b80634d1975b4116100d15780634d1975b4146101d9578063842a77d3146102045780639ace38c214610241578063a2f77bcc14610280576100fe565b8063117a5b9014610103578063120aace614610148578063248a55a11461018557806327506f53146101ae575b600080fd5b34801561010f57600080fd5b5061012a60048036038101906101259190612830565b61045a565b60405161013f99989796959493929190612958565b60405180910390f35b34801561015457600080fd5b5061016f600480360381019061016a9190612a46565b61077d565b60405161017c9190612d67565b60405180910390f35b34801561019157600080fd5b506101ac60048036038101906101a79190612830565b610cd2565b005b3480156101ba57600080fd5b506101c3610e69565b6040516101d09190612e7a565b60405180910390f35b3480156101e557600080fd5b506101ee610f32565b6040516101fb9190612e9c565b60405180910390f35b34801561021057600080fd5b5061022b60048036038101906102269190612a46565b610f38565b6040516102389190612e9c565b60405180910390f35b34801561024d57600080fd5b5061026860048036038101906102639190612830565b610f50565b60405161027793929190612ec6565b60405180910390f35b34801561028c57600080fd5b506102a760048036038101906102a29190612830565b610faa565b6040516102bb989796959493929190612f6c565b60405180910390f35b3480156102d057600080fd5b506102eb60048036038101906102e69190612a46565b611452565b6040516102fa93929190613014565b60405180910390f35b34801561030f57600080fd5b50610318611531565b6040516103259190613052565b60405180910390f35b34801561033a57600080fd5b506103556004803603810190610350919061306d565b6115c9565b60405161036493929190612ec6565b60405180910390f35b34801561037957600080fd5b50610382611630565b60405161038f9190612d67565b60405180910390f35b3480156103a457600080fd5b506103bf60048036038101906103ba91906131e2565b611b72565b005b3480156103cd57600080fd5b506103e860048036038101906103e39190613310565b611d59565b005b3480156103f657600080fd5b50610411600480360381019061040c9190613429565b612054565b005b61042d60048036038101906104289190612830565b612213565b005b34801561043b57600080fd5b506104446126ae565b6040516104519190613472565b60405180910390f35b6000602052806000526040600020600091509050806000015490806001018054610483906134bc565b80601f01602080910402602001604051908101604052809291908181526020018280546104af906134bc565b80156104fc5780601f106104d1576101008083540402835291602001916104fc565b820191906000526020600020905b8154815290600101906020018083116104df57829003601f168201915b505050505090806002018054610511906134bc565b80601f016020809104026020016040519081016040528092919081815260200182805461053d906134bc565b801561058a5780601f1061055f5761010080835404028352916020019161058a565b820191906000526020600020905b81548152906001019060200180831161056d57829003601f168201915b50505050509080600301805461059f906134bc565b80601f01602080910402602001604051908101604052809291908181526020018280546105cb906134bc565b80156106185780601f106105ed57610100808354040283529160200191610618565b820191906000526020600020905b8154815290600101906020018083116105fb57829003601f168201915b505050505090806004015490806005018054610633906134bc565b80601f016020809104026020016040519081016040528092919081815260200182805461065f906134bc565b80156106ac5780601f10610681576101008083540402835291602001916106ac565b820191906000526020600020905b81548152906001019060200180831161068f57829003601f168201915b5050505050908060060180546106c1906134bc565b80601f01602080910402602001604051908101604052809291908181526020018280546106ed906134bc565b801561073a5780601f1061070f5761010080835404028352916020019161073a565b820191906000526020600020905b81548152906001019060200180831161071d57829003601f168201915b5050505050908060070160009054906101000a900473ffffffffffffffffffffffffffffffffffffffff16908060070160149054906101000a900460ff16905089565b60606000600260008473ffffffffffffffffffffffffffffffffffffffff1673ffffffffffffffffffffffffffffffffffffffff16815260200190815260200160002080549050905060008167ffffffffffffffff8111156107e2576107e16130b7565b5b60405190808252806020026020018201604052801561081b57816020015b6108086126d4565b8152602001906001900390816108005790505b50905060005b82811015610cc7576000600260008773ffffffffffffffffffffffffffffffffffffffff1673ffffffffffffffffffffffffffffffffffffffff168152602001908152602001600020828154811061087c5761087b6134ed565b5b906000526020600020906003020160000154905060008082815260200190815260200160002060405180610140016040529081600082015481526020016001820180546108c8906134bc565b80601f01602080910402602001604051908101604052809291908181526020018280546108f4906134bc565b80156109415780601f1061091657610100808354040283529160200191610941565b820191906000526020600020905b81548152906001019060200180831161092457829003601f168201915b5050505050815260200160028201805461095a906134bc565b80601f0160208091040260200160405190810160405280929190818152602001828054610986906134bc565b80156109d35780601f106109a8576101008083540402835291602001916109d3565b820191906000526020600020905b8154815290600101906020018083116109b657829003601f168201915b505050505081526020016003820180546109ec906134bc565b80601f0160208091040260200160405190810160405280929190818152602001828054610a18906134bc565b8015610a655780601f10610a3a57610100808354040283529160200191610a65565b820191906000526020600020905b815481529060010190602001808311610a4857829003601f168201915b5050505050815260200160048201548152602001600582018054610a88906134bc565b80601f0160208091040260200160405190810160405280929190818152602001828054610ab4906134bc565b8015610b015780601f10610ad657610100808354040283529160200191610b01565b820191906000526020600020905b815481529060010190602001808311610ae457829003601f168201915b50505050508152602001600682018054610b1a906134bc565b80601f0160208091040260200160405190810160405280929190818152602001828054610b46906134bc565b8015610b935780601f10610b6857610100808354040283529160200191610b93565b820191906000526020600020905b815481529060010190602001808311610b7657829003601f168201915b505050505081526020016007820160009054906101000a900473ffffffffffffffffffffffffffffffffffffffff1673ffffffffffffffffffffffffffffffffffffffff1673ffffffffffffffffffffffffffffffffffffffff1681526020016007820160149054906101000a900460ff1615151515815260200160088201805480602002602001604051908101604052809291908181526020018280548015610c9257602002820191906000526020600020905b8160009054906101000a900473ffffffffffffffffffffffffffffffffffffffff1673ffffffffffffffffffffffffffffffffffffffff1681526020019060010190808311610c48575b505050505081525050838381518110610cae57610cad6134ed565b5b6020026020010181905250508080600101915050610821565b508092505050919050565b600660009054906101000a900473ffffffffffffffffffffffffffffffffffffffff1673ffffffffffffffffffffffffffffffffffffffff163373ffffffffffffffffffffffffffffffffffffffff1614610d62576040517f08c379a0000000000000000000000000000000000000000000000000000000008152600401610d599061358e565b60405180910390fd5b600080600083815260200190815260200160002090506000816000015411610dbf576040517f08c379a0000000000000000000000000000000000000000000000000000000008152600401610db6906135fa565b60405180910390fd5b8060070160149054906101000a900460ff1615610e11576040517f08c379a0000000000000000000000000000000000000000000000000000000008152600401610e0890613666565b60405180910390fd5b60018160070160146101000a81548160ff0219169083151502179055507f5ef6221cc1c069a8c723210c08d526c7ca88540ee8d66470cf01844efaae0b9482604051610e5d9190612e9c565b60405180910390a15050565b60606005805480602002602001604051908101604052809291908181526020016000905b82821015610f295783829060005260206000209060030201604051806060016040529081600082015481526020016001820160009054906101000a900473ffffffffffffffffffffffffffffffffffffffff1673ffffffffffffffffffffffffffffffffffffffff1673ffffffffffffffffffffffffffffffffffffffff16815260200160028201548152505081526020019060010190610e8d565b50505050905090565b60045481565b60016020528060005260406000206000915090505481565b60058181548110610f6057600080fd5b90600052602060002090600302016000915090508060000154908060010160009054906101000a900473ffffffffffffffffffffffffffffffffffffffff16908060020154905083565b606080606060006060806000606060008060008b81526020019081526020016000206040518061014001604052908160008201548152602001600182018054610ff2906134bc565b80601f016020809104026020016040519081016040528092919081815260200182805461101e906134bc565b801561106b5780601f106110405761010080835404028352916020019161106b565b820191906000526020600020905b81548152906001019060200180831161104e57829003601f168201915b50505050508152602001600282018054611084906134bc565b80601f01602080910402602001604051908101604052809291908181526020018280546110b0906134bc565b80156110fd5780601f106110d2576101008083540402835291602001916110fd565b820191906000526020600020905b8154815290600101906020018083116110e057829003601f168201915b50505050508152602001600382018054611116906134bc565b80601f0160208091040260200160405190810160405280929190818152602001828054611142906134bc565b801561118f5780601f106111645761010080835404028352916020019161118f565b820191906000526020600020905b81548152906001019060200180831161117257829003601f168201915b50505050508152602001600482015481526020016005820180546111b2906134bc565b80601f01602080910402602001604051908101604052809291908181526020018280546111de906134bc565b801561122b5780601f106112005761010080835404028352916020019161122b565b820191906000526020600020905b81548152906001019060200180831161120e57829003601f168201915b50505050508152602001600682018054611244906134bc565b80601f0160208091040260200160405190810160405280929190818152602001828054611270906134bc565b80156112bd5780601f10611292576101008083540402835291602001916112bd565b820191906000526020600020905b8154815290600101906020018083116112a057829003601f168201915b505050505081526020016007820160009054906101000a900473ffffffffffffffffffffffffffffffffffffffff1673ffffffffffffffffffffffffffffffffffffffff1673ffffffffffffffffffffffffffffffffffffffff1681526020016007820160149054906101000a900460ff16151515158152602001600882018054806020026020016040519081016040528092919081815260200182805480156113bc57602002820191906000526020600020905b8160009054906101000a900473ffffffffffffffffffffffffffffffffffffffff1673ffffffffffffffffffffffffffffffffffffffff1681526020019060010190808311611372575b50505050508152505090508061010001511561140d576040517f08c379a0000000000000000000000000000000000000000000000000000000008152600401611404906136d2565b60405180910390fd5b80602001518160400151826060015183608001518460a001518560c001518660e001518761012001519850985098509850985098509850985050919395975091939597565b6003602052806000526040600020600091509050806000018054611475906134bc565b80601f01602080910402602001604051908101604052809291908181526020018280546114a1906134bc565b80156114ee5780601f106114c3576101008083540402835291602001916114ee565b820191906000526020600020905b8154815290600101906020018083116114d157829003601f168201915b5050505050908060010160009054906101000a900473ffffffffffffffffffffffffffffffffffffffff16908060010160149054906101000a900460ff16905083565b6000600360003373ffffffffffffffffffffffffffffffffffffffff1673ffffffffffffffffffffffffffffffffffffffff16815260200190815260200160002060010160149054906101000a900460ff166115c2576040517f08c379a00000000000000000000000000000000000000000000000000000000081526004016115b99061373e565b60405180910390fd5b6001905090565b600260205281600052604060002081815481106115e557600080fd5b9060005260206000209060030201600091509150508060000154908060010160009054906101000a900473ffffffffffffffffffffffffffffffffffffffff16908060020154905083565b6060600080600190505b600454811161168c5760008082815260200190815260200160002060070160149054906101000a900460ff166116795781806116759061378d565b9250505b80806116849061378d565b91505061163a565b5060008167ffffffffffffffff8111156116a9576116a86130b7565b5b6040519080825280602002602001820160405280156116e257816020015b6116cf6126d4565b8152602001906001900390816116c75790505b509050600080600190505b6004548111611b685760008082815260200190815260200160002060070160149054906101000a900460ff16611b55576000808281526020019081526020016000206040518061014001604052908160008201548152602001600182018054611755906134bc565b80601f0160208091040260200160405190810160405280929190818152602001828054611781906134bc565b80156117ce5780601f106117a3576101008083540402835291602001916117ce565b820191906000526020600020905b8154815290600101906020018083116117b157829003601f168201915b505050505081526020016002820180546117e7906134bc565b80601f0160208091040260200160405190810160405280929190818152602001828054611813906134bc565b80156118605780601f1061183557610100808354040283529160200191611860565b820191906000526020600020905b81548152906001019060200180831161184357829003601f168201915b50505050508152602001600382018054611879906134bc565b80601f01602080910402602001604051908101604052809291908181526020018280546118a5906134bc565b80156118f25780601f106118c7576101008083540402835291602001916118f2565b820191906000526020600020905b8154815290600101906020018083116118d557829003601f168201915b5050505050815260200160048201548152602001600582018054611915906134bc565b80601f0160208091040260200160405190810160405280929190818152602001828054611941906134bc565b801561198e5780601f106119635761010080835404028352916020019161198e565b820191906000526020600020905b81548152906001019060200180831161197157829003601f168201915b505050505081526020016006820180546119a7906134bc565b80601f01602080910402602001604051908101604052809291908181526020018280546119d3906134bc565b8015611a205780601f106119f557610100808354040283529160200191611a20565b820191906000526020600020905b815481529060010190602001808311611a0357829003601f168201915b505050505081526020016007820160009054906101000a900473ffffffffffffffffffffffffffffffffffffffff1673ffffffffffffffffffffffffffffffffffffffff1673ffffffffffffffffffffffffffffffffffffffff1681526020016007820160149054906101000a900460ff1615151515815260200160088201805480602002602001604051908101604052809291908181526020018280548015611b1f57602002820191906000526020600020905b8160009054906101000a900473ffffffffffffffffffffffffffffffffffffffff1673ffffffffffffffffffffffffffffffffffffffff1681526020019060010190808311611ad5575b505050505081525050838381518110611b3b57611b3a6134ed565b5b60200260200101819052508180611b519061378d565b9250505b8080611b609061378d565b9150506116ed565b5081935050505090565b600660009054906101000a900473ffffffffffffffffffffffffffffffffffffffff1673ffffffffffffffffffffffffffffffffffffffff163373ffffffffffffffffffffffffffffffffffffffff1614611c02576040517f08c379a0000000000000000000000000000000000000000000000000000000008152600401611bf99061358e565b60405180910390fd5b600080600089815260200190815260200160002090506000816000015411611c5f576040517f08c379a0000000000000000000000000000000000000000000000000000000008152600401611c56906135fa565b60405180910390fd5b8060070160149054906101000a900460ff1615611cb1576040517f08c379a0000000000000000000000000000000000000000000000000000000008152600401611ca8906136d2565b60405180910390fd5b86816001019081611cc29190613981565b5085816002019081611cd49190613981565b5084816003019081611ce69190613981565b5083816004018190555082816005019081611d019190613981565b5081816006019081611d139190613981565b507fc9921792410179ebe0fcb4eb23c7b89cd9b7746868faec9d7821f97880f4c302888886604051611d4793929190613a53565b60405180910390a15050505050505050565b600660009054906101000a900473ffffffffffffffffffffffffffffffffffffffff1673ffffffffffffffffffffffffffffffffffffffff163373ffffffffffffffffffffffffffffffffffffffff1614611de9576040517f08c379a0000000000000000000000000000000000000000000000000000000008152600401611de09061358e565b60405180910390fd5b60008311611e2c576040517f08c379a0000000000000000000000000000000000000000000000000000000008152600401611e2390613add565b60405180910390fd5b60046000815480929190611e3f9061378d565b919050555060405180610140016040528060045481526020018781526020018681526020018581526020018481526020018381526020018281526020013373ffffffffffffffffffffffffffffffffffffffff168152602001600015158152602001600067ffffffffffffffff811115611ebc57611ebb6130b7565b5b604051908082528060200260200182016040528015611eea5781602001602082028036833780820191505090505b508152506000806004548152602001908152602001600020600082015181600001556020820151816001019081611f219190613981565b506040820151816002019081611f379190613981565b506060820151816003019081611f4d9190613981565b506080820151816004015560a0820151816005019081611f6d9190613981565b5060c0820151816006019081611f839190613981565b5060e08201518160070160006101000a81548173ffffffffffffffffffffffffffffffffffffffff021916908373ffffffffffffffffffffffffffffffffffffffff1602179055506101008201518160070160146101000a81548160ff02191690831515021790555061012082015181600801908051906020019061200992919061273f565b509050507fd2b9a68893d393baef360a573c656712981eca44d77e73b3bd6bd6bc6ab477246004548785336040516120449493929190613afd565b60405180910390a1505050505050565b600360003373ffffffffffffffffffffffffffffffffffffffff1673ffffffffffffffffffffffffffffffffffffffff16815260200190815260200160002060010160149054906101000a900460ff16156120e4576040517f08c379a00000000000000000000000000000000000000000000000000000000081526004016120db90613b95565b60405180910390fd5b60405180606001604052808281526020013373ffffffffffffffffffffffffffffffffffffffff16815260200160011515815250600360003373ffffffffffffffffffffffffffffffffffffffff1673ffffffffffffffffffffffffffffffffffffffff168152602001908152602001600020600082015181600001908161216c9190613981565b5060208201518160010160006101000a81548173ffffffffffffffffffffffffffffffffffffffff021916908373ffffffffffffffffffffffffffffffffffffffff16021790555060408201518160010160146101000a81548160ff0219169083151502179055509050507f48cac28ad4dc618e15f4c2dd5e97751182f166de97b25618318b2112aa951a2f3382604051612208929190613bb5565b60405180910390a150565b600080600083815260200190815260200160002090506000816000015411612270576040517f08c379a0000000000000000000000000000000000000000000000000000000008152600401612267906135fa565b60405180910390fd5b8060070160149054906101000a900460ff16156122c2576040517f08c379a00000000000000000000000000000000000000000000000000000000081526004016122b9906136d2565b60405180910390fd5b8060040154341015612309576040517f08c379a000000000000000000000000000000000000000000000000000000000815260040161230090613c31565b60405180910390fd5b8060070160009054906101000a900473ffffffffffffffffffffffffffffffffffffffff1673ffffffffffffffffffffffffffffffffffffffff163373ffffffffffffffffffffffffffffffffffffffff160361239b576040517f08c379a000000000000000000000000000000000000000000000000000000000815260040161239290613c9d565b60405180910390fd5b8060070160009054906101000a900473ffffffffffffffffffffffffffffffffffffffff1673ffffffffffffffffffffffffffffffffffffffff166108fc349081150290604051600060405180830381858888f19350505050158015612405573d6000803e3d6000fd5b50600560405180606001604052808481526020013373ffffffffffffffffffffffffffffffffffffffff1681526020013481525090806001815401808255809150506001900390600052602060002090600302016000909190919091506000820151816000015560208201518160010160006101000a81548173ffffffffffffffffffffffffffffffffffffffff021916908373ffffffffffffffffffffffffffffffffffffffff160217905550604082015181600201555050600260003373ffffffffffffffffffffffffffffffffffffffff1673ffffffffffffffffffffffffffffffffffffffff16815260200190815260200160002060405180606001604052808481526020013373ffffffffffffffffffffffffffffffffffffffff1681526020013481525090806001815401808255809150506001900390600052602060002090600302016000909190919091506000820151816000015560208201518160010160006101000a81548173ffffffffffffffffffffffffffffffffffffffff021916908373ffffffffffffffffffffffffffffffffffffffff160217905550604082015181600201555050600160003373ffffffffffffffffffffffffffffffffffffffff1673ffffffffffffffffffffffffffffffffffffffff16815260200190815260200160002060008154809291906126059061378d565b919050555080600801339080600181540180825580915050600190039060005260206000200160009091909190916101000a81548173ffffffffffffffffffffffffffffffffffffffff021916908373ffffffffffffffffffffffffffffffffffffffff1602179055507f386b2c241ea9384ab9e1c5d3e12dfbd5c74f7a37ff7c5134cc04ef689f4419498233346040516126a293929190612ec6565b60405180910390a15050565b600660009054906101000a900473ffffffffffffffffffffffffffffffffffffffff1681565b60405180610140016040528060008152602001606081526020016060815260200160608152602001600081526020016060815260200160608152602001600073ffffffffffffffffffffffffffffffffffffffff168152602001600015158152602001606081525090565b8280548282559060005260206000209081019282156127b8579160200282015b828111156127b75782518260006101000a81548173ffffffffffffffffffffffffffffffffffffffff021916908373ffffffffffffffffffffffffffffffffffffffff1602179055509160200191906001019061275f565b5b5090506127c591906127c9565b5090565b5b808211156127e25760008160009055506001016127ca565b5090565b6000604051905090565b600080fd5b600080fd5b6000819050919050565b61280d816127fa565b811461281857600080fd5b50565b60008135905061282a81612804565b92915050565b600060208284031215612846576128456127f0565b5b60006128548482850161281b565b91505092915050565b612866816127fa565b82525050565b600081519050919050565b600082825260208201905092915050565b60005b838110156128a657808201518184015260208101905061288b565b60008484015250505050565b6000601f19601f8301169050919050565b60006128ce8261286c565b6128d88185612877565b93506128e8818560208601612888565b6128f1816128b2565b840191505092915050565b600073ffffffffffffffffffffffffffffffffffffffff82169050919050565b6000612927826128fc565b9050919050565b6129378161291c565b82525050565b60008115159050919050565b6129528161293d565b82525050565b60006101208201905061296e600083018c61285d565b8181036020830152612980818b6128c3565b90508181036040830152612994818a6128c3565b905081810360608301526129a881896128c3565b90506129b7608083018861285d565b81810360a08301526129c981876128c3565b905081810360c08301526129dd81866128c3565b90506129ec60e083018561292e565b6129fa610100830184612949565b9a9950505050505050505050565b6000612a13826128fc565b9050919050565b612a2381612a08565b8114612a2e57600080fd5b50565b600081359050612a4081612a1a565b92915050565b600060208284031215612a5c57612a5b6127f0565b5b6000612a6a84828501612a31565b91505092915050565b600081519050919050565b600082825260208201905092915050565b6000819050602082019050919050565b612aa8816127fa565b82525050565b600082825260208201905092915050565b6000612aca8261286c565b612ad48185612aae565b9350612ae4818560208601612888565b612aed816128b2565b840191505092915050565b612b018161291c565b82525050565b612b108161293d565b82525050565b600081519050919050565b600082825260208201905092915050565b6000819050602082019050919050565b612b4b81612a08565b82525050565b6000612b5d8383612b42565b60208301905092915050565b6000602082019050919050565b6000612b8182612b16565b612b8b8185612b21565b9350612b9683612b32565b8060005b83811015612bc7578151612bae8882612b51565b9750612bb983612b69565b925050600181019050612b9a565b5085935050505092915050565b600061014083016000830151612bed6000860182612a9f565b5060208301518482036020860152612c058282612abf565b91505060408301518482036040860152612c1f8282612abf565b91505060608301518482036060860152612c398282612abf565b9150506080830151612c4e6080860182612a9f565b5060a083015184820360a0860152612c668282612abf565b91505060c083015184820360c0860152612c808282612abf565b91505060e0830151612c9560e0860182612af8565b50610100830151612caa610100860182612b07565b50610120830151848203610120860152612cc48282612b76565b9150508091505092915050565b6000612cdd8383612bd4565b905092915050565b6000602082019050919050565b6000612cfd82612a73565b612d078185612a7e565b935083602082028501612d1985612a8f565b8060005b85811015612d555784840389528151612d368582612cd1565b9450612d4183612ce5565b925060208a01995050600181019050612d1d565b50829750879550505050505092915050565b60006020820190508181036000830152612d818184612cf2565b905092915050565b600081519050919050565b600082825260208201905092915050565b6000819050602082019050919050565b606082016000820151612dcb6000850182612a9f565b506020820151612dde6020850182612b42565b506040820151612df16040850182612a9f565b50505050565b6000612e038383612db5565b60608301905092915050565b6000602082019050919050565b6000612e2782612d89565b612e318185612d94565b9350612e3c83612da5565b8060005b83811015612e6d578151612e548882612df7565b9750612e5f83612e0f565b925050600181019050612e40565b5085935050505092915050565b60006020820190508181036000830152612e948184612e1c565b905092915050565b6000602082019050612eb1600083018461285d565b92915050565b612ec081612a08565b82525050565b6000606082019050612edb600083018661285d565b612ee86020830185612eb7565b612ef5604083018461285d565b949350505050565b600082825260208201905092915050565b6000612f1982612b16565b612f238185612efd565b9350612f2e83612b32565b8060005b83811015612f5f578151612f468882612b51565b9750612f5183612b69565b925050600181019050612f32565b5085935050505092915050565b6000610100820190508181036000830152612f87818b6128c3565b90508181036020830152612f9b818a6128c3565b90508181036040830152612faf81896128c3565b9050612fbe606083018861285d565b8181036080830152612fd081876128c3565b905081810360a0830152612fe481866128c3565b9050612ff360c0830185612eb7565b81810360e08301526130058184612f0e565b90509998505050505050505050565b6000606082019050818103600083015261302e81866128c3565b905061303d6020830185612eb7565b61304a6040830184612949565b949350505050565b60006020820190506130676000830184612949565b92915050565b60008060408385031215613084576130836127f0565b5b600061309285828601612a31565b92505060206130a38582860161281b565b9150509250929050565b600080fd5b600080fd5b7f4e487b7100000000000000000000000000000000000000000000000000000000600052604160045260246000fd5b6130ef826128b2565b810181811067ffffffffffffffff8211171561310e5761310d6130b7565b5b80604052505050565b60006131216127e6565b905061312d82826130e6565b919050565b600067ffffffffffffffff82111561314d5761314c6130b7565b5b613156826128b2565b9050602081019050919050565b82818337600083830152505050565b600061318561318084613132565b613117565b9050828152602081018484840111156131a1576131a06130b2565b5b6131ac848285613163565b509392505050565b600082601f8301126131c9576131c86130ad565b5b81356131d9848260208601613172565b91505092915050565b600080600080600080600060e0888a031215613201576132006127f0565b5b600061320f8a828b0161281b565b975050602088013567ffffffffffffffff8111156132305761322f6127f5565b5b61323c8a828b016131b4565b965050604088013567ffffffffffffffff81111561325d5761325c6127f5565b5b6132698a828b016131b4565b955050606088013567ffffffffffffffff81111561328a576132896127f5565b5b6132968a828b016131b4565b94505060806132a78a828b0161281b565b93505060a088013567ffffffffffffffff8111156132c8576132c76127f5565b5b6132d48a828b016131b4565b92505060c088013567ffffffffffffffff8111156132f5576132f46127f5565b5b6133018a828b016131b4565b91505092959891949750929550565b60008060008060008060c0878903121561332d5761332c6127f0565b5b600087013567ffffffffffffffff81111561334b5761334a6127f5565b5b61335789828a016131b4565b965050602087013567ffffffffffffffff811115613378576133776127f5565b5b61338489828a016131b4565b955050604087013567ffffffffffffffff8111156133a5576133a46127f5565b5b6133b189828a016131b4565b94505060606133c289828a0161281b565b935050608087013567ffffffffffffffff8111156133e3576133e26127f5565b5b6133ef89828a016131b4565b92505060a087013567ffffffffffffffff8111156134105761340f6127f5565b5b61341c89828a016131b4565b9150509295509295509295565b60006020828403121561343f5761343e6127f0565b5b600082013567ffffffffffffffff81111561345d5761345c6127f5565b5b613469848285016131b4565b91505092915050565b60006020820190506134876000830184612eb7565b92915050565b7f4e487b7100000000000000000000000000000000000000000000000000000000600052602260045260246000fd5b600060028204905060018216806134d457607f821691505b6020821081036134e7576134e661348d565b5b50919050565b7f4e487b7100000000000000000000000000000000000000000000000000000000600052603260045260246000fd5b7f4f6e6c79207468652061646d696e2063616e20706572666f726d20746869732060008201527f616374696f6e0000000000000000000000000000000000000000000000000000602082015250565b6000613578602683612877565b91506135838261351c565b604082019050919050565b600060208201905081810360008301526135a78161356b565b9050919050565b7f47616d6520646f6573206e6f7420657869737400000000000000000000000000600082015250565b60006135e4601383612877565b91506135ef826135ae565b602082019050919050565b60006020820190508181036000830152613613816135d7565b9050919050565b7f47616d652068617320616c7265616479206265656e2064656c65746564000000600082015250565b6000613650601d83612877565b915061365b8261361a565b602082019050919050565b6000602082019050818103600083015261367f81613643565b9050919050565b7f47616d6520686173206265656e2064656c657465640000000000000000000000600082015250565b60006136bc601583612877565b91506136c782613686565b602082019050919050565b600060208201905081810360008301526136eb816136af565b9050919050565b7f55736572206973206e6f74207265676973746572656400000000000000000000600082015250565b6000613728601683612877565b9150613733826136f2565b602082019050919050565b600060208201905081810360008301526137578161371b565b9050919050565b7f4e487b7100000000000000000000000000000000000000000000000000000000600052601160045260246000fd5b6000613798826127fa565b91507fffffffffffffffffffffffffffffffffffffffffffffffffffffffffffffffff82036137ca576137c961375e565b5b600182019050919050565b60008190508160005260206000209050919050565b60006020601f8301049050919050565b600082821b905092915050565b6000600883026138377fffffffffffffffffffffffffffffffffffffffffffffffffffffffffffffffff826137fa565b61384186836137fa565b95508019841693508086168417925050509392505050565b6000819050919050565b600061387e613879613874846127fa565b613859565b6127fa565b9050919050565b6000819050919050565b61389883613863565b6138ac6138a482613885565b848454613807565b825550505050565b600090565b6138c16138b4565b6138cc81848461388f565b505050565b5b818110156138f0576138e56000826138b9565b6001810190506138d2565b5050565b601f82111561393557613906816137d5565b61390f846137ea565b8101602085101561391e578190505b61393261392a856137ea565b8301826138d1565b50505b505050565b600082821c905092915050565b60006139586000198460080261393a565b1980831691505092915050565b60006139718383613947565b9150826002028217905092915050565b61398a8261286c565b67ffffffffffffffff8111156139a3576139a26130b7565b5b6139ad82546134bc565b6139b88282856138f4565b600060209050601f8311600181146139eb57600084156139d9578287015190505b6139e38582613965565b865550613a4b565b601f1984166139f9866137d5565b60005b82811015613a21578489015182556001820191506020850194506020810190506139fc565b86831015613a3e5784890151613a3a601f891682613947565b8355505b6001600288020188555050505b505050505050565b6000606082019050613a68600083018661285d565b8181036020830152613a7a81856128c3565b9050613a89604083018461285d565b949350505050565b7f5072696365206d7573742062652067726561746572207468616e203000000000600082015250565b6000613ac7601c83612877565b9150613ad282613a91565b602082019050919050565b60006020820190508181036000830152613af681613aba565b9050919050565b6000608082019050613b12600083018761285d565b8181036020830152613b2481866128c3565b9050613b33604083018561285d565b613b406060830184612eb7565b95945050505050565b7f5573657220697320616c72656164792072656769737465726564000000000000600082015250565b6000613b7f601a83612877565b9150613b8a82613b49565b602082019050919050565b60006020820190508181036000830152613bae81613b72565b9050919050565b6000604082019050613bca6000830185612eb7565b8181036020830152613bdc81846128c3565b90509392505050565b7f496e73756666696369656e742045746865722073656e74000000000000000000600082015250565b6000613c1b601783612877565b9150613c2682613be5565b602082019050919050565b60006020820190508181036000830152613c4a81613c0e565b9050919050565b7f4f776e65722063616e6e6f7420627579207468656972206f776e2067616d6500600082015250565b6000613c87601f83612877565b9150613c9282613c51565b602082019050919050565b60006020820190508181036000830152613cb681613c7a565b905091905056fea264697066735822122069e8dd06dbbb7f7eec70446f00b46b7752d248bbfdd6e5aa01ff7ccbc8f6a9da64736f6c63430008180033",
  "linkReferences": {},
  "deployedLinkReferences": {}
}