{
  "_format": "hh-sol-artifact-1",
  "contractName": "GameStore",
  "sourceName": "contracts/GameStore.sol",
  "abi": [
    {
      "anonymous": false,
      "inputs": [
        {
          "indexed": false,
          "internalType": "uint256",
          "name": "gameId",
          "type": "uint256"
        },
        {
          "indexed": false,
          "internalType": "string",
          "name": "gameName",
          "type": "string"
        },
        {
          "indexed": false,
          "internalType": "uint256",
          "name": "gamePrice",
          "type": "uint256"
        },
        {
          "indexed": false,
          "internalType": "address",
          "name": "owner",
          "type": "address"
        }
      ],
      "name": "GameAdded",
      "type": "event"
    },
    {
      "anonymous": false,
      "inputs": [
        {
          "indexed": false,
          "internalType": "uint256",
          "name": "gameId",
          "type": "uint256"
        },
        {
          "indexed": false,
          "internalType": "address",
          "name": "buyer",
          "type": "address"
        },
        {
          "indexed": false,
          "internalType": "uint256",
          "name": "price",
          "type": "uint256"
        }
      ],
      "name": "GamePurchased",
      "type": "event"
    },
    {
      "inputs": [
        {
          "internalType": "string",
          "name": "_gameName",
          "type": "string"
        },
        {
          "internalType": "string",
          "name": "_gameStudio",
          "type": "string"
        },
        {
          "internalType": "string",
          "name": "_gameDescription",
          "type": "string"
        },
        {
          "internalType": "uint256",
          "name": "_gamePrice",
          "type": "uint256"
        }
      ],
      "name": "addGame",
      "outputs": [],
      "stateMutability": "nonpayable",
      "type": "function"
    },
    {
      "inputs": [
        {
          "internalType": "uint256",
          "name": "_gameId",
          "type": "uint256"
        }
      ],
      "name": "buyGame",
      "outputs": [],
      "stateMutability": "payable",
      "type": "function"
    },
    {
      "inputs": [],
      "name": "gameCount",
      "outputs": [
        {
          "internalType": "uint256",
          "name": "",
          "type": "uint256"
        }
      ],
      "stateMutability": "view",
      "type": "function"
    },
    {
      "inputs": [
        {
          "internalType": "uint256",
          "name": "",
          "type": "uint256"
        }
      ],
      "name": "games",
      "outputs": [
        {
          "internalType": "uint256",
          "name": "gameId",
          "type": "uint256"
        },
        {
          "internalType": "string",
          "name": "gameName",
          "type": "string"
        },
        {
          "internalType": "string",
          "name": "gameStudio",
          "type": "string"
        },
        {
          "internalType": "string",
          "name": "gameDescription",
          "type": "string"
        },
        {
          "internalType": "uint256",
          "name": "gamePrice",
          "type": "uint256"
        },
        {
          "internalType": "address payable",
          "name": "owner",
          "type": "address"
        }
      ],
      "stateMutability": "view",
      "type": "function"
    },
    {
      "inputs": [
        {
          "internalType": "uint256",
          "name": "_gameId",
          "type": "uint256"
        }
      ],
      "name": "getGame",
      "outputs": [
        {
          "internalType": "string",
          "name": "gameName",
          "type": "string"
        },
        {
          "internalType": "string",
          "name": "gameStudio",
          "type": "string"
        },
        {
          "internalType": "string",
          "name": "gameDescription",
          "type": "string"
        },
        {
          "internalType": "uint256",
          "name": "gamePrice",
          "type": "uint256"
        },
        {
          "internalType": "address",
          "name": "owner",
          "type": "address"
        }
      ],
      "stateMutability": "view",
      "type": "function"
    }
  ],
  "bytecode": "0x608060405234801561001057600080fd5b50611535806100206000396000f3fe60806040526004361061004a5760003560e01c8063117a5b901461004f5780634d1975b414610091578063a2f77bcc146100bc578063a81233e9146100fd578063f776051714610126575b600080fd5b34801561005b57600080fd5b5061007660048036038101906100719190610b60565b610142565b60405161008896959493929190610c6d565b60405180910390f35b34801561009d57600080fd5b506100a6610336565b6040516100b39190610ce3565b60405180910390f35b3480156100c857600080fd5b506100e360048036038101906100de9190610b60565b61033c565b6040516100f4959493929190610d1f565b60405180910390f35b34801561010957600080fd5b50610124600480360381019061011f9190610ebc565b6105b2565b005b610140600480360381019061013b9190610b60565b61074b565b005b600060205280600052604060002060009150905080600001549080600101805461016b90610fa6565b80601f016020809104026020016040519081016040528092919081815260200182805461019790610fa6565b80156101e45780601f106101b9576101008083540402835291602001916101e4565b820191906000526020600020905b8154815290600101906020018083116101c757829003601f168201915b5050505050908060020180546101f990610fa6565b80601f016020809104026020016040519081016040528092919081815260200182805461022590610fa6565b80156102725780601f1061024757610100808354040283529160200191610272565b820191906000526020600020905b81548152906001019060200180831161025557829003601f168201915b50505050509080600301805461028790610fa6565b80601f01602080910402602001604051908101604052809291908181526020018280546102b390610fa6565b80156103005780601f106102d557610100808354040283529160200191610300565b820191906000526020600020905b8154815290600101906020018083116102e357829003601f168201915b5050505050908060040154908060050160009054906101000a900473ffffffffffffffffffffffffffffffffffffffff16905086565b60015481565b606080606060008060008060008881526020019081526020016000206040518060c00160405290816000820154815260200160018201805461037d90610fa6565b80601f01602080910402602001604051908101604052809291908181526020018280546103a990610fa6565b80156103f65780601f106103cb576101008083540402835291602001916103f6565b820191906000526020600020905b8154815290600101906020018083116103d957829003601f168201915b5050505050815260200160028201805461040f90610fa6565b80601f016020809104026020016040519081016040528092919081815260200182805461043b90610fa6565b80156104885780601f1061045d57610100808354040283529160200191610488565b820191906000526020600020905b81548152906001019060200180831161046b57829003601f168201915b505050505081526020016003820180546104a190610fa6565b80601f01602080910402602001604051908101604052809291908181526020018280546104cd90610fa6565b801561051a5780601f106104ef5761010080835404028352916020019161051a565b820191906000526020600020905b8154815290600101906020018083116104fd57829003601f168201915b50505050508152602001600482015481526020016005820160009054906101000a900473ffffffffffffffffffffffffffffffffffffffff1673ffffffffffffffffffffffffffffffffffffffff1673ffffffffffffffffffffffffffffffffffffffff1681525050905080602001518160400151826060015183608001518460a00151955095509550955095505091939590929450565b600081116105f5576040517f08c379a00000000000000000000000000000000000000000000000000000000081526004016105ec90611023565b60405180910390fd5b6001600081548092919061060890611072565b91905055506040518060c0016040528060015481526020018581526020018481526020018381526020018281526020013373ffffffffffffffffffffffffffffffffffffffff1681525060008060015481526020019081526020016000206000820151816000015560208201518160010190816106859190611266565b50604082015181600201908161069b9190611266565b5060608201518160030190816106b19190611266565b506080820151816004015560a08201518160050160006101000a81548173ffffffffffffffffffffffffffffffffffffffff021916908373ffffffffffffffffffffffffffffffffffffffff1602179055509050507fd2b9a68893d393baef360a573c656712981eca44d77e73b3bd6bd6bc6ab4772460015485833360405161073d9493929190611338565b60405180910390a150505050565b60008060008381526020019081526020016000206040518060c00160405290816000820154815260200160018201805461078490610fa6565b80601f01602080910402602001604051908101604052809291908181526020018280546107b090610fa6565b80156107fd5780601f106107d2576101008083540402835291602001916107fd565b820191906000526020600020905b8154815290600101906020018083116107e057829003601f168201915b5050505050815260200160028201805461081690610fa6565b80601f016020809104026020016040519081016040528092919081815260200182805461084290610fa6565b801561088f5780601f106108645761010080835404028352916020019161088f565b820191906000526020600020905b81548152906001019060200180831161087257829003601f168201915b505050505081526020016003820180546108a890610fa6565b80601f01602080910402602001604051908101604052809291908181526020018280546108d490610fa6565b80156109215780601f106108f657610100808354040283529160200191610921565b820191906000526020600020905b81548152906001019060200180831161090457829003601f168201915b50505050508152602001600482015481526020016005820160009054906101000a900473ffffffffffffffffffffffffffffffffffffffff1673ffffffffffffffffffffffffffffffffffffffff1673ffffffffffffffffffffffffffffffffffffffff1681525050905060008160000151116109d3576040517f08c379a00000000000000000000000000000000000000000000000000000000081526004016109ca906113d0565b60405180910390fd5b8060800151341015610a1a576040517f08c379a0000000000000000000000000000000000000000000000000000000008152600401610a119061143c565b60405180910390fd5b8060a0015173ffffffffffffffffffffffffffffffffffffffff163373ffffffffffffffffffffffffffffffffffffffff1603610a8c576040517f08c379a0000000000000000000000000000000000000000000000000000000008152600401610a83906114a8565b60405180910390fd5b8060a0015173ffffffffffffffffffffffffffffffffffffffff166108fc349081150290604051600060405180830381858888f19350505050158015610ad6573d6000803e3d6000fd5b507f386b2c241ea9384ab9e1c5d3e12dfbd5c74f7a37ff7c5134cc04ef689f441949823334604051610b0a939291906114c8565b60405180910390a15050565b6000604051905090565b600080fd5b600080fd5b6000819050919050565b610b3d81610b2a565b8114610b4857600080fd5b50565b600081359050610b5a81610b34565b92915050565b600060208284031215610b7657610b75610b20565b5b6000610b8484828501610b4b565b91505092915050565b610b9681610b2a565b82525050565b600081519050919050565b600082825260208201905092915050565b60005b83811015610bd6578082015181840152602081019050610bbb565b60008484015250505050565b6000601f19601f8301169050919050565b6000610bfe82610b9c565b610c088185610ba7565b9350610c18818560208601610bb8565b610c2181610be2565b840191505092915050565b600073ffffffffffffffffffffffffffffffffffffffff82169050919050565b6000610c5782610c2c565b9050919050565b610c6781610c4c565b82525050565b600060c082019050610c826000830189610b8d565b8181036020830152610c948188610bf3565b90508181036040830152610ca88187610bf3565b90508181036060830152610cbc8186610bf3565b9050610ccb6080830185610b8d565b610cd860a0830184610c5e565b979650505050505050565b6000602082019050610cf86000830184610b8d565b92915050565b6000610d0982610c2c565b9050919050565b610d1981610cfe565b82525050565b600060a0820190508181036000830152610d398188610bf3565b90508181036020830152610d4d8187610bf3565b90508181036040830152610d618186610bf3565b9050610d706060830185610b8d565b610d7d6080830184610d10565b9695505050505050565b600080fd5b600080fd5b7f4e487b7100000000000000000000000000000000000000000000000000000000600052604160045260246000fd5b610dc982610be2565b810181811067ffffffffffffffff82111715610de857610de7610d91565b5b80604052505050565b6000610dfb610b16565b9050610e078282610dc0565b919050565b600067ffffffffffffffff821115610e2757610e26610d91565b5b610e3082610be2565b9050602081019050919050565b82818337600083830152505050565b6000610e5f610e5a84610e0c565b610df1565b905082815260208101848484011115610e7b57610e7a610d8c565b5b610e86848285610e3d565b509392505050565b600082601f830112610ea357610ea2610d87565b5b8135610eb3848260208601610e4c565b91505092915050565b60008060008060808587031215610ed657610ed5610b20565b5b600085013567ffffffffffffffff811115610ef457610ef3610b25565b5b610f0087828801610e8e565b945050602085013567ffffffffffffffff811115610f2157610f20610b25565b5b610f2d87828801610e8e565b935050604085013567ffffffffffffffff811115610f4e57610f4d610b25565b5b610f5a87828801610e8e565b9250506060610f6b87828801610b4b565b91505092959194509250565b7f4e487b7100000000000000000000000000000000000000000000000000000000600052602260045260246000fd5b60006002820490506001821680610fbe57607f821691505b602082108103610fd157610fd0610f77565b5b50919050565b7f5072696365206d7573742062652067726561746572207468616e203000000000600082015250565b600061100d601c83610ba7565b915061101882610fd7565b602082019050919050565b6000602082019050818103600083015261103c81611000565b9050919050565b7f4e487b7100000000000000000000000000000000000000000000000000000000600052601160045260246000fd5b600061107d82610b2a565b91507fffffffffffffffffffffffffffffffffffffffffffffffffffffffffffffffff82036110af576110ae611043565b5b600182019050919050565b60008190508160005260206000209050919050565b60006020601f8301049050919050565b600082821b905092915050565b60006008830261111c7fffffffffffffffffffffffffffffffffffffffffffffffffffffffffffffffff826110df565b61112686836110df565b95508019841693508086168417925050509392505050565b6000819050919050565b600061116361115e61115984610b2a565b61113e565b610b2a565b9050919050565b6000819050919050565b61117d83611148565b6111916111898261116a565b8484546110ec565b825550505050565b600090565b6111a6611199565b6111b1818484611174565b505050565b5b818110156111d5576111ca60008261119e565b6001810190506111b7565b5050565b601f82111561121a576111eb816110ba565b6111f4846110cf565b81016020851015611203578190505b61121761120f856110cf565b8301826111b6565b50505b505050565b600082821c905092915050565b600061123d6000198460080261121f565b1980831691505092915050565b6000611256838361122c565b9150826002028217905092915050565b61126f82610b9c565b67ffffffffffffffff81111561128857611287610d91565b5b6112928254610fa6565b61129d8282856111d9565b600060209050601f8311600181146112d057600084156112be578287015190505b6112c8858261124a565b865550611330565b601f1984166112de866110ba565b60005b82811015611306578489015182556001820191506020850194506020810190506112e1565b86831015611323578489015161131f601f89168261122c565b8355505b6001600288020188555050505b505050505050565b600060808201905061134d6000830187610b8d565b818103602083015261135f8186610bf3565b905061136e6040830185610b8d565b61137b6060830184610d10565b95945050505050565b7f47616d6520646f6573206e6f7420657869737400000000000000000000000000600082015250565b60006113ba601383610ba7565b91506113c582611384565b602082019050919050565b600060208201905081810360008301526113e9816113ad565b9050919050565b7f496e73756666696369656e742045746865722073656e74000000000000000000600082015250565b6000611426601783610ba7565b9150611431826113f0565b602082019050919050565b6000602082019050818103600083015261145581611419565b9050919050565b7f4f776e65722063616e6e6f7420627579207468656972206f776e2067616d6500600082015250565b6000611492601f83610ba7565b915061149d8261145c565b602082019050919050565b600060208201905081810360008301526114c181611485565b9050919050565b60006060820190506114dd6000830186610b8d565b6114ea6020830185610d10565b6114f76040830184610b8d565b94935050505056fea2646970667358221220d34a45f50af887844276556dbbbebdf150658e8edd0ce7e79742647ba47b9b8164736f6c63430008180033",
  "linkReferences": {},
  "deployedLinkReferences": {}
}